:020000040000FA
:10000000805400204D42000083D7000021420000B0
:1000100021420000214200002142000000000000B7
:10002000000000000000000000000000C13A0000D5
:1000300021420000000000005D3A00002142000063
:100040007D3B00007D3B00007D3B00007D3B0000D0
:100050007D3B00007D3B00007D3B00007D3B0000C0
:100060007D3B00007D3B00007D3B00007D3B0000B0
:100070007D3B00007D3B00007D3B00007D3B0000A0
:100080007D3B00007D3B00007D3B00007D3B000090
:100090007D3B00007D3B00007D3B00007D3B000080
:1000A0007D3B00007D3B00007D3B00007D3B000070
:1000B0007D3B00007D3B00007D3B00007D3B000060
:1000C0007D3B00007D3B00007D3B00007D3B000050
:1000D0007D3B00007D3B00007D3B00007D3B000040
:1000E0007D3B00007D3B00007D3B00007D3B000030
:1000F0007D3B00007D3B00007D3B00007D3B000020
:1001000053B94AB9002908BF00281CBF4FF0FF317E
:100110004FF0FF3000F00CB8ADF1080C6DE904CEE3
:1001200000F008F8DDF804E0DDE9022304B07047D0
:10013000704700BF2DE9F04786468C460846089E6A
:10014000154674461946002B40F0C2808542B2FA2B
:1001500082F245D94AB1C2F1200300FA02FC2EFA1C
:1001600003F3954043EA0C0C94404FEA154EA8B2B5
:10017000BCFBFEF8230C0EFB18CC08FB00F943EA8D
:100180000C43994528D9EB1808F1FF3704D299455B
:1001900002D9A8F102072B44A3EB0903A4B2B3FBD5
:1001A000FEFC0EFB1C330CFB00F044EA0344A042AF
:1001B00014D92C190CF1FF3304D2A04202D9ACF1AE
:1001C00002032C44241A43EA07401EB1D440002302
:1001D00034607360BDE8F0874746DDE76346F1E7CA
:1001E00092BB431B01214FEA154EAFB2B3FBFEFC9D
:1001F000200C0EFB1C330CFB07F840EA0343984528
:1002000062D9EB180CF1FF3004D2984502D9ACF159
:1002100002002B44A3EB0803A4B2B3FBFEFC0EFBCD
:100220001C330CFB07F744EA0344A7424ED92C19B0
:100230000CF1FF3304D2A74202D9ACF102032C44E3
:10024000E41B43EA0040C0E7C2F1200320FA03F1B7
:10025000954090402EFA03F303434FEA154EAFB298
:10026000B1FBFEFC0EFB1C10190C0CFB07F841EA5D
:100270000041884504FA02F422D969180CF1FF30D4
:1002800004D2884502D9ACF102002944A1EB08014F
:100290009BB2B1FBFEFC0EFB1C110CFB07F743EA03
:1002A00001439F420ED9EB180CF1FF3104D29F425B
:1002B00002D9ACF102012B44DB1B41EA004192E779
:1002C0006046E3E76146F7E76046A3E76346B7E7C2
:1002D000834206D916B9002108467BE7C6E900E04B
:1002E000F9E7B3FA83F78FB9834201D3724508D88F
:1002F000BEEB020460EB030301209C461EB9002103
:1003000068E73846FAE7C6E9004CF8E7C7F1200C81
:10031000BB4022FA0CF41C432EFA0CF120FA0CF329
:10032000B84001434FEA14490EFA07F5B3FBF9F858
:100330001FFA84FE09FB18300B0C08FB0EFA43EA87
:1003400000439A4502FA07F240D9E31808F1FF305A
:1003500004D29A4502D9A8F102002344A3EB0A0370
:1003600089B2B3FBF9F809FB183308FB0EFE41EA2A
:1003700003418E452CD9611808F1FF3304D28E4514
:1003800002D9A8F10203214443EA0040A0FB0298ED
:10039000A1EB0E014145CE46434602D306D14D4561
:1003A00004D2B9EB020E68EB04030138002EA6D08C
:1003B000B5EB0E0261EB030101FA0CFC22FA07F324
:1003C0004CEA0303F940C6E9003198E74046C5E727
:1003D0004346D9E710F8012B11F8013B012A28BF49
:1003E0009A42F7D0D01A7047034611F8012B03F850
:1003F000012B002AF9D17047034613F8012B002A7C
:10040000FBD1181A01387047F0B5012795B0534C4D
:1004100000250EA93846CDE90355676101F0C2FBFE
:100420000E9AD2E90213009106461B6852684C48A6
:1004300039460CF021FAAE420BDB4A4B23612046D1
:10044000494BA560E36004F0FDFA061E23DA474B32
:1004500003E00E980DF0FBF8454B13930223129323
:1004600044482B4612AA4FF4825101F025F800208F
:1004700001F0FAFF02220346002868D03E4BCDE986
:100480001223002312AA4FF482513A4801F014F8C3
:10049000002015B0F0BD002140F267600BF050FA6B
:1004A000E168364832460CF0E7F905A9E06804F047
:1004B00073FA011E03DA32480CF0DEF9D7E7089B25
:1004C0000193079B0093E1682E48DDE905230CF0BA
:1004D000D3F9E16803A804F02DF9E1680646024665
:1004E00029480CF0C9F9002E0DDB284C14220021FC
:1004F00009A80FF0DEFC09A903A804F09BF9002865
:1005000010DA234B00E0234B139302231293194874
:10051000002312AA4FF4825100F0CEFF03A804F08A
:1005200011FAA4E79DF825301BB91B480CF0A4F97B
:10053000F4E79DF824300D9A002B18BF44210DF1EB
:10054000250308BF462120460CF096F9CEE7134953
:10055000CDE912214FF4865112AA96E7D00D002062
:1005600076070100A00B00209A070100BC070100DC
:10057000A10701000802010099080100D707010046
:10058000E5070100F8070100350801008D080100AA
:100590005E080100450801007F080100AE08010067
:1005A0002DE9F04F91B08407009302F00403029309
:1005B000C2F3C20303F10103DDF86890039205461C
:1005C0000E46059340F0BA81041D30B1072909D8C1
:1005D0006FF01B0011B0BDE8F08F01F00706341D6D
:1005E000C6F10806009B4FF00008591E4FF0040AA0
:1005F0004FF0FF330193CDF810804746C346534672
:100600000DB1009A22600598002800F3E880984810
:10061000009A824203D397488242C0F0E080039A56
:10062000A4EB050E92074FEA9E0000F103810F2F05
:1006300000F2B180002D00F0058107F140020DEBC2
:10064000020C019A0CF8200C0CF8102C04980130C4
:100650000490E7E07A285DD84B280ED8472859D86F
:1006600029282DD8252852D054D820287AD02338AC
:10067000D0F1000B4BEB000B74E04C382E2849D81E
:10068000DFE800F07048484848484848484848482B
:100690004B484848484848484859484B4B5959598D
:1006A000704B6D487048184B184848827F4B48483B
:1006B0004B487F0000204FF0000B4FF0040A38E059
:1006C0002A38C0B2012202FA00F010EA0E0F49D116
:1006D00010F0625C2FD110EA020B43D06046013C5F
:1006E0005444B4FBFAF40AFB04F4002D61D0A3EBEC
:1006F000050CA4446645FFF46BAF002868D1042BB9
:1007000047D159F8043B2360043404232AE0019ABA
:10071000013A01924FF0000B24E011F8010C6C2813
:1007200034D111F8023C00206C2B8346C5D14FF028
:10073000080A5346D3E709F1070929F007090734E6
:10074000F9E802AB24F0070435B106982044B04222
:100750003FF63EAFC4E900AB08344FF0000B4FF05A
:10076000080A534611F8010F002878D0BBF1000F9A
:100770007FF470AF2528F5D1019B013301934FF031
:10078000010B4FF0040AECE7584694E7002083463B
:10079000A5E7082B02D06FF015001BE709F1070948
:1007A00029F00709F9E80223C4E9002308340823E3
:1007B000D8E768B9042B02D109F10409A4E7082B92
:1007C000E9D109F1070929F0070909F10809EDE75D
:1007D000059A013A059259F8042B009210E7039A02
:1007E000900720D5A4EB050E4FEA9E004FF0010CB8
:1007F000BEF5007FCFD20F2FCDD8F5B107F1400263
:100800000DEB020EC0B2019A0EF8200C0EF8102C5F
:10081000BCF1000F3FF41AAF60F07F000EF8200C1F
:1008200008F101080137C5F10802043406924FF6B9
:10083000DA7E97E74FF0000CDAE7BCF1000F01D049
:100840000136EFE7029802360028EBD10098CDE997
:100850000631FFF7D1FDDDE906310644E2E7631B0F
:10086000B3F5806F97D23DB9A6F10804E018B1E660
:10087000E8FE000084200100029A28609B082B708B
:100880009DF81030C2B1EB7085F80280B8F1000F0E
:1008900005D008A80022C5F1010C97420ED1C5F180
:1008A00001030DF120094FF0000A01930DF1300B07
:1008B000574512D1601B8DE66B70E5E710F8013BE0
:1008C000190608D504EB0C0E764503F07F03FFF400
:1008D0007FAE04F8013B0132DFE7B8F1000F03D02F
:1008E00099F90020002A17DB029BD3B11AF80B20DC
:1008F00004F8012B0022019B981820448642FFF443
:1009000067AE99F8000004F8010B009903922046A5
:100910000FF0A7FA039A14440AF1010A09F1010938
:10092000C6E799F8002055F822300093029B45F85D
:1009300022300098FFF760FD421CDCE76FF00D00ED
:1009400048E600BF2DE9F04F95B000AF90F802B037
:10095000BB61BB6F7A62C3F3C00304463B618A4646
:1009600041B9457800780BEB80002044554517D8F5
:10097000A0EB040AE3787B61BBF1000F02D0BB6FF0
:10098000D80716D47B6953BB7B6A1BB1BA69514641
:1009900020469847554628465437BD46BDE8F08F57
:1009A000461C3046FFF728FD013030440AF1010AA9
:1009B000DCE723783B629B00FB603B6A6268FA617C
:1009C00004EB83097B6A002B40F0FE805546C84645
:1009D00009EB0B0A0026D04551D1D94413E0BB6F77
:1009E0009907D1D523783B6299469B00FB606368E9
:1009F000FB617B6A04EB8909002B7AD15546BBF178
:100A0000000F4FD15E46BB6F13F0050F7B6909EBFA
:100A1000430ABB6F03F002030CBF4FF0020B4FF011
:100A2000010B7B62D145B6D019F8021B19F8013CC5
:100A300054F82380AA4B984502D3AA4B984538D343
:100A40003B69002B42D0F8690BF0EFFE00283DD047
:100A5000E8468AB06A46A44B5361FB69C2E9063195
:100A60004FF400731384A14B42F8103FA0480023B9
:100A70004FF4125100F020FD023DC546D2E718F8B0
:100A8000013B54F82300FFF7B7FCFB6F01303BB18B
:100A9000D7F880309E423EBFFB6F23F81600013628
:100AA000054498E7BB6F13F004061CBF7E6AD94467
:100AB000A9E73B6923B1F8690BF0B7FE0028C7D15D
:100AC000BB6FDA0705D4A5EB0B05ABE77B6A002B00
:100AD000A8D04046FFF790FCFB6F43B1D7F88030B9
:100AE0009E423FBFFA6F431C22F816300136054480
:100AF00098E7BBF1000F6DD0BB6F13F004066CD00C
:100B0000D846002607F140005A4649460FF0A9F999
:100B10007B695B007B607B69D94409EB4303BB6065
:100B2000BB6F03F002033B60BB684B4557D1B96F05
:100B30006378B86F890706EB030254BF4FEA580188
:100B40000021C507D2B200F19A8010F0040F14BF43
:100B500040460020FB616270A070E170BA69F968DC
:100B60007B6A20469847051EFFF615AF3B6A237047
:100B7000FB6963707B69E3704146BA697B6A84F8FC
:100B800002B007F140009847B0F10008C0F2A4801D
:100B9000FB68BA69AAEB0B01C91A7B684846C91AF7
:100BA0007B6A98470028C0F29980A84408EB0005AA
:100BB0004FF0000B07F1300AB34562D30021BA6948
:100BC0007B6A08469847E6E65E464FF0000807F164
:100BD000300099E75E46D8469AE7B04698E719F89C
:100BE000021B3F4B19F8015C54F82500984202D3D0
:100BF0003C4B98421DD33B6923B1F8690BF015FEBD
:100C0000002891D13B68FBB908F1280307F12802BD
:100C100008F1010003EB020C07F1500353FA80F0D6
:100C200008F102080CF8101C5FFA88F800F8105C54
:100C30007AE73B692BB1F8690BF0F7FD00287FF4E8
:100C400073AFBB6FDB0709D506F1280307F1280254
:100C5000711C9E1806F8205CCEB265E7BB6F580782
:100C60007FF562AF08F1280307F1280208F10101BE
:100C700003EB020808F8105C5FFA81F854E70020E3
:100C800068E71BF80A3087F82F3054F82390FB6F81
:100C9000FBB133F81B80BA697B6A012107F12F0091
:100CA000984700281ADB0544B8F1000F06D14846E2
:100CB000FFF7A2FB00F101081FFA88F8BA697B6A06
:100CC000414648469847002808DB05440BF1010BD4
:100CD00072E7D7F87C80DEE745465CE605465AE6D3
:100CE000E8FE000084200100E0080100040000018B
:100CF000B8010100014B1860704700BF00000020E0
:100D000080B505460E46174698460AF04DFE034646
:100D10000FF0E0F8DFF81890044649F8003042463A
:100D200030463946A84754F8090003F00FFB00BFCE
:100D3000080000002DE9F047058B0446280790467F
:100D400011D4022905F0070540F0CD8020460CF0B3
:100D500068F878B10138218B042811D8DFE800F059
:100D6000C3106D85950001290CBF45F0100545F0B5
:100D70002005258388F31188BFF36F8FBDE8F087C6
:100D800001F0070AAA4500F0A6800027B9463E46B2
:100D9000A368002B00F0BD8041F00801218388F397
:100DA0001188BFF36F8FA168002900F0BB800D6828
:100DB000002900F0B780D1F804803346524620461F
:100DC000C047002D76D02B6829461D46F0E701F07C
:100DD00007035A1F012A1BD8002221F00701062B06
:100DE000276889B2C4E9002209D13B4603E0628B3F
:100DF000013262831B68002BF9D141F0020121838B
:100E000020460CF00EF800287BD041F0200177E05E
:100E1000042B0AD121F0070189B2218320460CF06E
:100E200000F810B141F020012183218B01F0070A65
:100E3000AA4550D00027B946AAE7236921F0070147
:100E400041F00601062DD3F8009021832DD1B9F190
:100E5000000F40D041F00801218388F31188BFF3CF
:100E60006F8F3A492046C84729E021F007012369DE
:100E700041F0040189B2042DD3F804902183E6D017
:100E800000273E464FF0040A82E721F0070123695C
:100E900041F0050189B2052DD3F808902183D6D001
:100EA00000273E464FF0050A72E700273E464FF006
:100EB000060A6DE72B4687E7B9F1000FD1D14FF055
:100EC0002003EFF3118883F31288BFF36F8F238B16
:100ED00023F008032383258BEA062ED525F0100383
:100EE000238305F007056669218B002EBFF66FAFDF
:100EF00000232768C4E9003321F0070141F0010114
:100F00002183218B01F0070AAA454FF000097FF4E5
:100F10003FAF002F9BD041F00801218388F3118857
:100F2000BFF36F8F002FC7D03D6839463346524616
:100F300020460BF0A2FF2F46F4E7AB067FF51AAF71
:100F400025F02003238305F00705FFE6A7CE000068
:100F500008B504464FF02002EFF3118382F31288A4
:100F6000BFF36F8F06F076FC204603F099F9034833
:100F70000BF082FC02F070FCFCE700BF940901005A
:100F800007F040BB2DE9F047DFF8588004460746DC
:100F90004FF0010914B93846BDE8F08794FAA4F57A
:100FA000B5FA85F509FA05F32E0108EB05156FEA88
:100FB000030A24EA03042B7B002BEBD058F80630FD
:100FC0001B694BB94644042273682846196807EA2E
:100FD0000A0700F05DFADDE7284698470028D9D1D6
:100FE000F0E700BF6002010030B51049104889B039
:100FF00000220EF01AFE0F4D0F4900220023CDE90A
:10100000062300240E23CDE90334CDE901440B4B24
:1010100000944FF44072284609F0CAFE0849284659
:101020000EF0A5FB204609B030BD00BF4510000002
:1010300068080020E0030020003B0020351300007A
:10104000BD09010001480AF025B800BF10030020C7
:101050002DE9F04780461F480F460CF065FA06461A
:10106000002830D000252846BDE8F087237B73B1E7
:101070002368DB680BB12046984723681B69D3B906
:10108000636804221968204600F002FA0136103421
:101090004C45EBD3B8F1000FE5D0002DE2D0284647
:1010A000FFF770FF0546002FF7D000214FF4A47022
:1010B0000AF046FCF1E7204698470028E0D00AFAFB
:1010C00006F31D43E2E7044CDFF8109005464FF0AD
:1010D000010ADDE7040E0020600201008002010029
:1010E000014B53F820007047CC02010008B50346BD
:1010F00008462BB1044A136000F080FC002008BDB4
:101100006FF01500FBE700BF0400002010B5044C91
:10111000237813B9034809F0BDFF0123237010BDE4
:101120006C3600201003002010B5044608480CF06F
:10113000FBF95CB1BFF35B8F064B53E8001F01392D
:1011400043E80012002AF8D1BFF35B8F10BD00BF47
:10115000FC0D0020000E00200020064BBFF35B8F2B
:10116000014653E8000F43E80012002AF9D1BFF30B
:101170005B8F7047FC0D002070B5FFF7EDFF084C4A
:10118000084E0546B44200D370BD63685B792BB14D
:1011900023685B6813B12946204698471034F1E76D
:1011A000600201008002010010B5044C0449204691
:1011B0000CF04BF8034B1C6010BD00BFF401002085
:1011C000B8020100F40D0020084A094808B50023C0
:1011D0001370084A1360084A4FF400411360FFF788
:1011E00085FFBDE80840FFF7DFBF00BF6D36002078
:1011F00025D50000FC0D0020000E00200146002235
:10120000014800230CF042B8F401002001480CF022
:10121000DBB800BFF4010020024B014618680CF057
:1012200025B900BFF40D002001480CF05BB900BFE8
:10123000F401002070B5284B187800284BD0FFF738
:10124000E5FF054690B1BFF35B8F244B53E8001FC9
:10125000013943E80012002AF8D1BFF35B8F204C1C
:10126000204EB4422DD32846FFF7D6FF1E4B1F4C0D
:101270001B68002B19DD0EF091FC4FF47A72A0FB75
:10128000020302FB0131C30BD4E9002043EA4143CE
:101290009B1A4FEAD13140F2E93261EB00019342EF
:1012A00071F1000101D3FFF767FFD4E9003213F5B4
:1012B0007A7342F10002C4E90032BDE87040FFF7E2
:1012C000B3BF63685B7923B1236829461B68204656
:1012D00098471034C5E770BD6C360020000E002022
:1012E0006002010080020100FC0D00206008002067
:1012F00070B50D4D297861B90120FFF7A9FE0B4C9F
:101300000B4EB44206D3FFF795FF0028FBD1012313
:101310002B7070BD63685B791BB1236820469B68A6
:1013200098471034EDE700BF6D36002060020100E1
:101330008002010000212DE9F0470846FFF788FEF2
:10134000044658B340F267684FF000090EF0C2FD42
:101350001B4B1C4A1B58136033B11B4B1B68092BDA
:1013600002DD1A4809F096FE194FDFF860A000254B
:1013700044B12046FFF706FE044618B94FF0FF3887
:101380004FF0FF39FFF756FF064628B9B5B9424678
:101390004B46504609F0A2FE3546E9E74FF0FF38CC
:1013A0004FF0FF39D2E72B689B691BB10022114631
:1013B000284698471035BD42F5D3E8E7054DFAE7D2
:1013C00008000000F80D0020000E0020100300208F
:1013D000800201006002010013B518480CF0A4F867
:1013E000174B1B787BB14FF02003EFF3118483F38D
:1013F0001288BFF36F8FFFF71DFF84F31188BFF3CF
:101400006F8F02B010BD0F4B1B68002BF9D050B985
:1014100000220023CDE900230B484FF400420023B3
:101420000AF006FDEDE70928EBD107480EF009FCAC
:10143000064802B0BDE8104009F02CBE000E0020A6
:101440006D360020F80D00206808002010030020F1
:1014500010B5064B1B68044698472146A060044817
:101460000BF092FFBDE81040FFF7B6BF040000206C
:10147000F4010020044A054B9B1AB1EBD30F34BF93
:1014800052F831000020704798010100600201000D
:10149000084BC31A10B41B1144680133237143680D
:1014A0009A7143681960436801225A7110BCFFF7B2
:1014B0002DBE00BF600201002DE9F04F8FB004AFD8
:1014C000C1F34A28B8600D4691467B600C0DB8F117
:1014D000000F63D0002607F114034FF0040B4FF008
:1014E0000A0AC7F80C80C7E907667E620193CDF847
:1014F00008B0CDF800A007F11C03F9683246484651
:10150000FFF720FAB0F5006F03461CD36C468AB093
:10151000D9F8041004AB2648C3E9050140F2FF7175
:10152000D9611A464FF400711984224B42F8103FDA
:10153000214833464FF41251FFF7BEFFA5462C3722
:10154000BD46BDE8F08FC0F30A0804F11700184447
:1015500020F0070080083B60FFF750FE68F353253A
:10156000044690B13B68154AC7E9083600F11001FE
:1015700007F11403F961CDE900A3CDF808B0F968CB
:1015800007F11C034846FFF7DDF968F353257B6834
:10159000B9682A4620460BF0FDFFD0E704F117009A
:1015A00020F007008008FFF729FE0446EDE700BFA2
:1015B000D209010004000001F001010069D500001A
:1015C0002DE9F04F87B0DDE91269DDE9105A0446D4
:1015D0000F4693469846A6B31021CDF800903346A7
:1015E00052460020CDF81490FEF7DAFF014605F1CF
:1015F00017000844144B039104F007040BF0070B89
:10160000E40020F0070003EA412344EA8B14800839
:101610001C43FFF7F3FD44EA0554054640B13EB1D3
:101620000399CDF80090334652461030FEF7B8FFCC
:10163000434622463946284607B0BDE8F04F0BF036
:10164000A9BF3146D3E700BF00FE0F000EB403B5BB
:1016500003AB014653F8042B0448019302F08AFFC0
:1016600002B05DF804EB03B0704700BFFBD500008B
:10167000CA0605D48B064CBF02490349FFF7E6BFF3
:10168000704700BF120A0100110A01002DE9F04F56
:1016900089B09A46DDE914739DF84CB00593169B0A
:1016A000179E069204460D460493BBF1000F00F00E
:1016B000858006F0080307930BF054FF06F002093B
:1016C0000246002849D086492046FFF7BFFF8046E2
:1016D000B9F1000F08D016F0440F40D181492A46D5
:1016E0002046FFF7B3FF804406F0010353B17E4B61
:1016F0007E4953F82B207E4B2046002A08BF1A460D
:10170000FFF7A4FF06F00803002B54D0794B7A4969
:1017100053F82B202046FFF799FF0546069B2BB177
:1017200076491A462046FFF791FF0544BAF1000FAB
:1017300005D0734952462046FFF788FF05444544CB
:10174000002F49D1049B002B4FD1F30700F1C1803A
:1017500031462046FFF78CFFB5E08046B8E7694B7D
:1017600018680028BFD0684B4FF47A791B68B5FB26
:10177000F3F54FF46161B5FBF0F300FB135509FB82
:1017800005F54FF03C0CB3FBF1F201FB1231B5FB58
:10179000F0FEB1FBFCF300FB1E550CFB131109FB23
:1017A00005F50091B5FBF0F55849CDE901E5204676
:1017B000FFF74CFF97E706F00805AFE7BAF1010F16
:1017C00006D1002F65D1049B002B7CD000250CE0B6
:1017D000002FF8D04E485DE04E484F493B46224628
:1017E0000AF0F2FF049B002B69D0DFF83081DFF8AC
:1017F0003091049F3146102F204628BF1027FFF755
:1018000037FF4FF0000A554546DC059B49461A78DC
:101810002046FFF71BFF4FF0010A1AF0070F03D114
:1018200041462046FFF712FF57453CD9059B4946E4
:1018300013F80A202046FFF709FF0AF1010ABAF15E
:10184000100FEAD1374920464FF0000AFFF7FEFE9D
:101850005246059B9A5C344B995C11F0970F08BF78
:101860002E2232492046FFF7F1FE0AF1010ABAF1B1
:10187000100F1DD01AF0070F03D141462046FFF785
:10188000E5FE57455246E4D841462046FFF7DEFEC6
:10189000EBE720485D46A0E741462046FFF7D6FE2D
:1018A0000AF1010AAFE722492046FFF7CFFEC4E75D
:1018B000059B3B440593049BDB1B049399D1BBF12F
:1018C000000F7FF442AF204609B0BDE8F04F0BF0A7
:1018D00087BE074A05492046FFF7B8FE38E700BF34
:1018E000190A01001D0A0100DC0201003A1701007B
:1018F000140A0100F0020100420A0100480A010036
:101900004C0A01000C0E0020080E0020260A0100DF
:1019100031D60000FBD5000075450000641D0100B4
:10192000510A0100570A0100741F0100590A010001
:10193000621D01002DE9F0410F884B688E6886B06A
:1019400005460C469046C7F382175BB1144A9B1AB2
:1019500043F3CF01002920DB2078C0F3C200FFF75A
:1019600089FD03462146608851F8102B0197C2F388
:101970004A22002A01EB0204C0F30B1008BF002129
:101980000022CDE90408CDE9021400923146284630
:10199000FFF77CFE06B0BDE8F0810023E2E700BF60
:1019A0009801010073B542F20F738B4228BF0B46BA
:1019B00005680F4A0446052168460AF091FC6368F1
:1019C0000C495B6806460B2228460BF0FCFD636859
:1019D0003246694628465B680BF0F5FD63680649A8
:1019E0005B681B2228460BF0EEFD02B070BD00BF05
:1019F000401B0100780A01005C0A0100074A00212F
:101A00000123904206D8064A01B901231360054B11
:101A10001860704740085B000121F2E740420F0068
:101A2000080E00200C0E0020014B01221A70704796
:101A30006E360020014B002019607047240E0020F4
:101A4000024B034801221A700BF0CABD6F3600200A
:101A5000200301000148FFF7A5BF00BF20030100DC
:101A600010B5064B18680C46FFF73AFB21460346B3
:101A7000BDE8104002480F22184700BF240E002086
:101A80002003010010B9074B18707047064B1B78F4
:101A90001BB141F288300DF006BEA420002109F0F0
:101AA0004FBF00BF6E3600206F3600202DE9F8438F
:101AB000DFF874901D4F80460E46042499F80050BC
:101AC00095B908F065FF28463246414608F012FFF6
:101AD000054608F067FFE5B101233B7099F8003037
:101AE00073B93046BDE8F88332464146002008F01D
:101AF00001FF0546EFE72046FFF7C4FF651E2C46B1
:101B0000002008F03BFF0028EBD03B78002BF2D1FF
:101B1000E7E73B78002BE4D0013C2046FFF7B2FF1B
:101B20003B78002BCAD1DCE76F3600206E360020F0
:101B3000014B0020196070473C0E0020024B034807
:101B400001221A700BF04CBD813600204C030100BD
:101B50000148FFF727BF00BF4C03010010B5064B3B
:101B600018680C46FFF7BCFA21460346BDE8104052
:101B700002480F22184700BF3C0E00204C03010012
:101B8000F8B5074F0D4604464618B44201D1284621
:101B9000F8BD14F8011BBB6801485B689847F4E77F
:101BA000DCFF000070B5114B1C680D46DCB1104B1A
:101BB000196800238B4202DB6FF0010070BD2246E2
:101BC00012F8106B864202D001331446F2E7E06847
:101BD00010B96FF01200F1E70DF06AFD0028F8D09F
:101BE0002C600020EAE76FF00C00E7E720000020FF
:101BF0005C030100F0B40C4B0C4E5F6A0C4BB3421B
:101C000003D36FF08500F0BC70475D68BD4209D317
:101C10001C693CB195F802C00579AC4502D1234658
:101C2000F0BC18472433EAE7400E0020E003002010
:101C3000BC0300202DE9F047134CDFF85080DFF89B
:101C4000509005460E461746444503D36FF0850075
:101C5000BDE8F0876268D9F824309A4212D3A369AC
:101C600083B190782979884205D13A463146284691
:101C7000BDE8F04718475279012A03D13A46314668
:101C8000284698472434DFE7BC030020E003002007
:101C9000400E00202DE9F0410B4CDFF83080054666
:101CA0000E461746444502D36FF0850009E063698C
:101CB0000BB92434F6E73A463146284698470028BF
:101CC000F7D1BDE8F08100BFBC030020E003002095
:101CD000024B00221A605A60704700BFFB0E0020C2
:101CE00070B50B4B0B4CA34201D3002070BD196A99
:101CF0001E7F00220439D5B2AE4201D82433F2E768
:101D0000013211F832508542F5D10120EEE700BFD3
:101D1000BC030020E003002008B509480378C3F3A2
:101D200041130A3350F823303BB100F1080200F1AF
:101D300010019847C043C00F08BD1846FCE700BF1C
:101D4000400E002073B5C4B263060D468DF80740FF
:101D500007D02046FFF7C4FF78B10D4B93F8BA00C7
:101D600058B10B4E204655B103F094FEF3691BB1F8
:101D70000DF1070108209847012002B070BD03F063
:101D8000C3FEF369002BF7D00DF107010920F2E73C
:101D9000400E002080B500AF88B06A46074BC2E90C
:101DA0000530032342F8103F054800234FF4C25189
:101DB000FFF782FB0020BD4680BD00BFCE0A0100B8
:101DC0004002010004282DE9F74FDFF89C900446FB
:101DD0000F4615D001282FD1DFF8908098F8B93040
:101DE00053B300F03DFE224D4D4522D22A6A4FF0FA
:101DF000000A2B7F5FFA8AF6B34204D82435F3E752
:101E0000FFF766FFE8E702EBC606019230790BF0B8
:101E10004FFF834630790BF01DFCD8F8C430019A8F
:101E200023EA0003BBF1000FC8F8C4300AF1010A2D
:101E3000DFDA002388F8B9300D4D4D4508D30B4B40
:101E40001B6A6BB13946204603B0BDE8F04F184716
:101E5000EB681BB13A462146284698472435ECE703
:101E600003B0BDE8F08F00BFE0030020400E00206B
:101E7000BC030020F8B500AF05460BF019FF10F1C8
:101E8000780F044613D090B16E4688B06A460E4B68
:101E9000C2E90535032342F8103F0C4800234FF4F4
:101EA000C251FFF709FBB5462046BD46F8BD28469E
:101EB0000BF0D0FB064AD2F8C43023EA0003C2F884
:101EC000C4300024F0E700BFE90A0100400201002D
:101ED000400E0020F0B583B000AF04468078387023
:101EE00023796279274D43EA02237B80E37803F06C
:101EF00003033B710BF0AEFBD5F8C4301842064625
:101F00000CD0A478204600F08DFD2046FFF7B2FFEC
:101F10000DF027FC10B9962009F02CFD384603F08F
:101F200085FD10F1780F0346387814D09BB16C46CC
:101F300088B06A46144BC2E90530032342F8103FCB
:101F4000124800234FF4C251FFF7B6FA0020A5460D
:101F50000C37BD46F0BD03F013FE10F1780F08D02A
:101F600038B16C4688B03B786A460949C2E9051326
:101F7000E3E7D5F8C4300120334385F8B900C5F84C
:101F8000C430E5E7400E00200B0B010040020100C9
:101F90002F0B01002DE9F047A34EB36904460F460D
:101FA0001546FBB9237803F01F03012B00F09D8039
:101FB000022B00F0048133BB94F900002A68617899
:101FC000002834DA062912D008292BD0D9B90123E8
:101FD0001370517096F8C3305B0043F00103137027
:101FE00002232AE198470028DCD100200DE0628816
:101FF000100A011F0129844605D9072803D8716AF0
:10200000D2B20C781CB96FF01500BDE8F0874E789D
:10201000664503D19A4200F00B8101332144F0E779
:102020000B780AE196F8BA301370012305E1013903
:102030000829E8D801A353F821F000BFD5200000FB
:1020400007200000E32000000720000061200000BE
:102050000720000007200000072000006D2000007E
:10206000A07803F0A7FC0028BFD0CCE76388756A8E
:1020700063BBFFF72DFE638886F8BA30F369002B47
:10208000B3D06A4903209847AFE76B78042B10D090
:10209000052B11D0022B04D16F796388BB4208BF96
:1020A00001202B781D442B78002BEED10028AAD0DC
:1020B000DFE795F80380F4E76388BB42F1D1B8F11C
:1020C000000FEED12846FFF705FFEAE7FF270020C3
:1020D000B846E8E76388012B95D1002386F8C33022
:1020E00083E76388012B8ED1F8E796F8BA30D5F8EC
:1020F00000C0002B87D0756AA38894F804E02A46B4
:10210000107800283FF47FAF5178022904D192F86B
:102110000480F04500F293800244F1E78CF800203F
:102120008CF80120396060E7154494E00B2A7FF4B5
:102130006AAF00274FF0FF08C146BA4606E06B7849
:10214000042B0FD0052B21D02B781D442B78002B8E
:10215000F5D1F36913B1514607209847002F7FF45A
:1021600044AF50E795F80280A38895F8039098450E
:10217000EAD163889945E7D1B8F1070F1CD806EB7F
:102180000803AA4683F8BB900127DDE7A3884345EF
:10219000DAD1A3784B450AD0AF78384600F042FC3C
:1021A0003846FFF767FEB0FA80F77F09CCE728468C
:1021B000FFF790FE0746C7E7AA460027C4E794F951
:1021C00000206378002A18DA002B7FF41CAF2479F2
:1021D0002D6863060AD02046FFF782FD00283FF4F1
:1021E00012AF96F8BA30002B3FF40DAF29462046C7
:1021F00003F0AAFC00236B70F2E6012B08D0032B3E
:102200007FF401AF6388002B7FF4FDAE012103E072
:10221000618800297FF4F7AEA088FFF793FD0028BE
:102220007FF4E3AEEFE600BF400E0020FA0E002080
:10223000022829607FF4F4AE4B883B60D5E694F920
:10224000000062780028BFF671AF002A3FF466AF45
:102250000A2A7FF4D8AE2A78002A3FF4D4AE6978EF
:1022600004297FF461AFA9788B427FF45DAF072B1F
:1022700096BF9B19002393F8BB308CF80030D4E64E
:102280007FB5084B0593022304930748002304AA53
:102290004FF48251FFF710F94FF0FF3007B05DF8AF
:1022A00004FB00BF500B01004002010013B5164CA7
:1022B000237DF3B9E268A168019201AB80200BF0A5
:1022C000D7F9019AA3681344A360E3689B1AE360FB
:1022D0006BB962B12369E2889A4208DD94F8C8209C
:1022E00093FBF2F102FB11330BB90123237502B00A
:1022F00010BD00231A4619468020237502B0BDE8A0
:10230000104003F067BC00BF400E002070B58AB0DB
:1023100000230D4601930646002868D1002940D1CC
:1023200008220B460DEB02010BF0DBFC002804DA5F
:10233000802003F0AFFB0AB070BD324C029A2260DD
:10234000039A626004F13802A2609DF90820BDF88A
:102350000E302575002AC4E9035515DB802B0FD9F3
:10236000294B09930223089328482B4608AA4FF4C7
:102370008251FFF7A1F8802003F08CFB2846D8E7B4
:1023800013B1C4E90333D6E7FFF7C6FC0028CFD06A
:10239000E28823699A42D4BFE260E360FFF786FFD8
:1023A000C9E7184CD4E90212002A01AB05DC024649
:1023B0000BF097FC0028BEDABAE70BF092FC00287D
:1023C00004DA802003F066FB3046B2E7019AA36886
:1023D0001344A360E3689B1AE360002BABD104F1C4
:1023E0003803A360FFF798FC0028D7D1A0E7802826
:1023F000A1D1044BDA68002AD0D11B7D002BCDD1AE
:1024000099E700BF400E0020750B0100400201005B
:10241000054B064A9A62064ADA62064A1A63064A77
:1024200058629A6100207047400E0020951F0000FE
:10243000F51B0000951C0000351C000010B5094B71
:1024400093F8B84054B900F0F3F818B9BDE810405B
:10245000FFF716BFFFF7DCFF204610BD6FF07700D7
:10246000FBE700BF400E00202DE9F041464D86B04D
:102470006F6A044645484FF0FF324FF0FF3308F0D3
:102480001FFD95F8B860002E7BD141482C62E861B1
:1024900003F014FD03F05CFA041E15DB00F004FBEE
:1024A000041E11DB7B78012B01D1FB799BB9394BE1
:1024B0000593022304933848002304AA4FF4825161
:1024C0006FF01504FEF7F8FF304808F073FD204662
:1024D00006B0BDE8F081684685F8C830ADF8023036
:1024E0008DF804608DF8006003F0A0FA041EEBDBA9
:1024F000802768468DF8007003F098FA041EE3DB2D
:102500002649304603F0C6FC041EDDDB234938466D
:1025100003F0C0FC041ED7DB214CDFF88880444563
:102520001AD3002003F02CFB041ECDDBD5F8C430F9
:10253000802043F00103C5F8C43003F021FB041EE2
:10254000C2DBD5F8C43043F48033C5F8C43001236E
:1025500085F8B8300024B7E7276A0026227FF3B257
:102560009A4201D82434DAE707EBC30257F8331054
:10257000107903F08FFC01360028EFD04FF0FF34C4
:10258000A2E76FF077049FE7400E0020FC020020D6
:10259000C51D00008E0B0100400201000D2300004C
:1025A000BC030020E003002030B51F4B8BB005AA10
:1025B00003F1100518685968144603C40833AB4288
:1025C0002246F7D11B7823701022002101A80DF0BC
:1025D00070FC1222002115480DF06BFC102101A89F
:1025E0000BF018FD00281BDD0828B8BF08200938AB
:1025F00001AB0E491A18002012F8013F0AAC04EB97
:10260000131403F00F0328336B44013014F8144CF7
:1026100013F8143C0C7008284B7001F10201EBD147
:1026200002480BB030BD00BFC80B0100823600204D
:102630002DE9F04F8F4C8BB04FF0000B00AF002610
:102640004FF0011AB1463546B046237843B98A4B5C
:1026500002349C42F3D187482C37BD46BDE8F08F49
:102660006378052B1DD8DFE813F0BA0006000201DD
:10267000BA001F005700402387F810B07B8287F80C
:1026800014B007F1100003F0A7F940B108237B82D2
:1026900007F1100003F0A0F908B1A7F812B07B8A87
:1026A000E37123781C44D0E7E378002BF9D1A378B9
:1026B0004BB309F101095FFA89F9F2E76B689C42B3
:1026C00023D024356D4B9D42F8D36D4688B06A46C1
:1026D0006B4BC2E90534032342F8103F69480023DD
:1026E0004FF4C251FEF7E8FEAD46674B7B62022312
:1026F0003B626448002307F120024FF48251FEF749
:10270000DBFE0020A8E7614DDCE7AB68002BD0D0F2
:10271000494620469847CCE7002D5ED15C4B7B6252
:1027200002233B625748002307F120024FF48251F5
:10273000FEF7C2FED9E72B6AA27803EBC103FB6068
:102740001B799A4205D001312B7F9942F3D3514B2B
:10275000E5E70123E07800F003003875207994F86C
:1027600005C040EA0C20788294F902000028DAB211
:1027700028DA03F110004FF0010C0CFA00F010EA17
:102780000A0F26D142F08000387407F11000C7E923
:102790000032B96003F020F9D7E901213B68C0B9E4
:1027A000397CF868A17011F0800F18BF10320171E8
:1027B00018BFD2B24FF0010114BF914099404AEACC
:1027C000010A6EE70120984010EA0A0F01D1104675
:1027D000DAE70133102BBDD1B5E70021B4E7032EB2
:1027E0002CD1FFF7E1FEF86088B1FDF705FE70B16E
:1027F0001028FB6817D0284B7B6202233B622148DC
:10280000002307F120024FF48251FEF755FE237892
:102810006FF00201E218091B04EB5303D14214D5F7
:102820000136F6B23DE7184600F11002A31C50F83D
:10283000041B43F8041B9042F9D1E8E7002EE6D1CF
:10284000B8F1000F08D1154B69E702F801BC13F885
:10285000010902F8020DE1E7A4EB080388F8023051
:10286000C3F3072388F8033088F80490D8E7A0461C
:1028700017E700BF30030020BC030020E003002066
:10288000D90B010038020100BF0C0100BC0300207D
:10289000F90B01003A0C0100570C0100A20C0100D9
:1028A00010B5094B00211A461C78844204D15C689B
:1028B00014B102EB811010BD0131042903F1400372
:1028C000F2D10020F7E700BF0C0F00202DE9F04304
:1028D00083B050F8283C10F82C5C103300AF04464D
:1028E00011D1036950F8202C13F002064BD0F2B935
:1028F00013F0040304D11A46194628460AF0B8FE1C
:10290000002344F8283C54F8283C10330BD054E9F9
:10291000078654F8149C0CF024FF00286FD03E4822
:1029200021460CF0FAFF0C37BD46BDE8F08350F8A5
:10293000241C3B1D28460AF09BFE98B16E4688B0C9
:102940006A46364BD561C2E90530042342F8103F90
:10295000334800234FF40151FEF7AEFDB5466FF04A
:102960001503CEE77A6854F8243C134444F8243C19
:1029700054F8203C9B1A44F8203C54F81C3C134467
:1029800044F81C3CBFE750F8241C3B1D284603F0CC
:10299000C3F988B1E84688B06A46204BD561C2E9E0
:1029A0000530042342F8103F1D4833464FF40151CF
:1029B000FEF782FDC546D2E77E6854F8243C3344D6
:1029C00044F8243C54F8203C9B1B44F8203C54F829
:1029D0001C3C334444F81C3C002E91D0284603F0A4
:1029E00073FAB6FBF0F303FB1066002E88D154F89F
:1029F000203C002B84D0284603F0F4F983E744F808
:102A0000180CA4F1100008F045FB002E8BD04A46AC
:102A100041462846B04786E7E00A0020ED0C010059
:102A20005802010010B54FF02003EFF3118483F337
:102A30001288BFF36F8FFFF733FF50B14368103335
:102A400007D16FF08B03436000F12C0103480CF0B9
:102A500064FF84F31188BFF36F8F10BDE00A00207C
:102A600070B50F4C04254FF02003EFF3118683F36C
:102A70001288BFF36F8F6368103307D16FF08B0339
:102A80000848636004F12C010CF047FF86F31188BD
:102A9000BFF36F8F013D04F14004E4D170BD00BF6E
:102AA0000C0F0020E00A002070B50A4C0A4E0025E9
:102AB000314620460CF014FF0122A4F1100011460B
:102AC00001350CF0EFFE042D04F14004F0D100209C
:102AD00070BD00BF380F0020CD280000014B997059
:102AE000704700BF4B03002008B51F2200210B4890
:102AF0000DF0DFF90D22002109480DF0DAF94FF44D
:102B00001072084800210DF0D4F9074A0023136021
:102B1000064A1360064A138008BD00BFA336002092
:102B20009636002018100020101000200C100020F5
:102B300068360020012904D1024B00221A70FFF7E9
:102B4000D3BF7047C236002030B5184B84889B78BD
:102B50009C4287B001D144886CB1154B1548059350
:102B600004AA02234FF4825104930AF09FFD6FF0F0
:102B7000150007B030BD90F900504378002D07DBF9
:102B8000FF2B0FD1C3886BB90B4A13700020F0E7FD
:102B9000FE2B07D1C388012B04D1084810600470B4
:102BA0000B60F3E76FF08500E3E700BF4B03002005
:102BB000170D010048020100C236002095360020A2
:102BC0007FB50F490F48552342220B7053234B709A
:102BD0008A70CB70007B00230D220AF049FD48B1BA
:102BE000094B05930948022304AA4FF48251049328
:102BF0000AF05CFD064B04221A7007B05DF804FB76
:102C00009636002008000020300D01004802010027
:102C1000C236002008B5094B9A6842B193F90C30CE
:102C2000002B074BB4BF187B18790AF039FD054B10
:102C300001221A73BDE80840FFF7C2BFA336002087
:102C4000080000209636002010B5054B9C68012036
:102C500024B9044B1873FFF7B3FF204610BD00BF23
:102C6000A3360020963600202DE9F041284E294D4C
:102C7000346829882848DFF8A480402C28BF4024E5
:102C8000C1F500739C4228BF1C4600AF01440023DD
:102C900098F80C0022460AF0EBFC80B198F80C3052
:102CA000E84688B06A461E491E48C2E90513032358
:102CB00042F8103F4FF4C2510AF0F8FCC5462B8889
:102CC0003168194823449BB2B3F5007F29BF174AE6
:102CD0002B80A3F500732B8022BF13680133136090
:102CE000091B134A316093681B1B9360037839B149
:102CF000022B02D0012111730370BD46BDE8F081A3
:102D0000022B14BF01210021117308BF0323F3E735
:102D10000C10002068360020181000200800002049
:102D2000420D010048020100C236002010100020B0
:102D30009636002030B591B00023244809930AF05C
:102D4000B8FC60B1224B0F93224802230EAA4FF425
:102D500082510E930AF0AAFC002011B030BD1E4A29
:102D60001A4801210AF0EFFC08B11C4BEBE71748A9
:102D700009AA02210AF0E7FC044608B1184BE2E771
:102D8000099DB5F5007F01D0164BDCE7164B187096
:102D9000FFF7AAFE0122214614480CF083FD002211
:102DA0000023CDE906236FF00403CDE90243CDE90A
:102DB00000440F4B0F4904942A460F4807F0F8FFD0
:102DC0000E490D480CF0D3FCC6E700BF5A0D0100B8
:102DD0005F0D010048020100141000208B0D01005E
:102DE000BA0D0100E80D0100C23600205C1200207F
:102DF000012E0000403E0020A00800204C0E0100E3
:102E00002DE9F047564D574C86B000AF4FF0FF32DA
:102E10004FF0FF33284608F061F92668012E13D0E1
:102E2000032E30D06E4688B088B023686A464E497B
:102E30004E48C2E90513032342F8103F4FF4C25134
:102E40000AF034FCB546E1E7DFF824814949D8F8B7
:102E50000020494833460AF048FC88B16E4688B0E5
:102E600088B0D8F800306A4644494048C2E90513A2
:102E7000032342F8103F4FF4C2510AF017FCB54645
:102E8000FFF7F2FEC2E7DFF8E8803A49D8F8002001
:102E9000394801230AF040FC80B1E94688B088B087
:102EA000D8F800306A4636493048C2E9051342F87E
:102EB000106F4FF4C2510AF0F9FBCD46314BDFF8E9
:102EC000C8A0D3F80090BAF80030A9F50076F6183B
:102ED00007D02E494FF410733246A1F500700CF064
:102EE00050FFD8F80030AAF800600133C8F800306D
:102EF000DFF89C80274ED8F80020A2EB0902C8F822
:102F00000020B368A3EB0903B360DFF88C9052B1E3
:102F100099F80030022B1AD1042323601F4B187933
:102F20000AF0C2FB72E7144805210AF00CFC50B10C
:102F30001B4B7B610D48022307F110024FF48251B5
:102F40003B610AF0B3FBD8F80030002BE0D199F8D0
:102F500000305A1E534253413373FFF731FEDBE713
:102F60005C1200206C120020A90E01004802010032
:102F700010100020181000205A0D0100550E0100FD
:102F80006D0E010058120020683600201812002033
:102F90000C10002096360020C236002008000020C9
:102FA0008D0E01007FB5064B05930648022304AA47
:102FB0004FF4825104930AF079FB07B05DF804FBEB
:102FC000C60E01004802010010B50D4B9B689942E6
:102FD0000C4628BF9CB201460A4B0B4803221A70CC
:102FE000007B002322460AF043FB18B1BDE81040E5
:102FF000FFF7D8BF054B9A681873121B9A6010BD73
:10300000A3360020C236002008000020963600209B
:10301000094B1A68094B1B689A4201D3FFF7FABDA6
:10302000074B1B882BB9074B01221A60064808F092
:1030300031B8FFF719BE00BF101000201410002097
:10304000683600206C1200205C1200207FB50C4B0B
:10305000DB7B03F07F03282B04D107B05DF804EB82
:10306000FFF7D6BF074B05930748022304AA4FF486
:10307000825104930AF01AFB07B05DF804FB00BF0D
:10308000A3360020D70E01004802010008B50B4A04
:103090001378032B0ED0042B05D0022B06D1BDE8EC
:1030A0000840FFF7D3BF0023137008BD044B187B03
:1030B0000AF0F6FABDE80840FFF782BDC2360020EC
:1030C0000800002010B586B0FFF7BEFD98B11D497D
:1030D0001D4AD1F8113012681BBA9A420ED81B4B08
:1030E0001B48059304AA02234FF4825104930AF06B
:1030F000DDFAFFF78FFD002006B010BD154A136002
:10310000154A00241480CA7BA82A17D00CD8283A64
:10311000D2B2072A0AD8852424FA02F2D20705D5AA
:10312000CB8A5BBA9BB201E0AA2A07D00B4A5B02AA
:1031300013608A689342DFD0094BD1E7D1F815308C
:103140001BBAF3E7A336002014100020F90E01008B
:103150004802010010100020683600200C100020EA
:103160000A0F01002DE9F04798B000AF0023AF4DE2
:103170007B6040223B1D07F1200106460AF092FACF
:103180002A784AB1022A00F01E8130460AF088FAF5
:10319000A74B02221A73FEE0BB881F2B15D0A54B4C
:1031A000FB610223BB61A44807F118024FF482516E
:1031B0000AF07CFAA14B1B68032B02D030460AF0C0
:1031C00073FA6037BD46BDE8F0879D4B07F12002DA
:1031D00007F1380E1C469446BCE80300F44518601D
:1031E0005960624603F10803F5D1DCF8000018606D
:1031F0009CF80620BCF8041099809A712268914BC3
:103200009A4201D0904BCBE7DFF824826368C8F87C
:103210000430A37BA268C8F80820013B0F2B01D81B
:10322000637B13B1FFF7F6FCC4E7E37B2F2B58D881
:103230001D2B1FD8122B70D046D8002B61D0032B2A
:10324000F0D1FFF701FD0028B4D0804B07F1080250
:1032500003F1100C154618685968144603C4083366
:1032600063452246F7D11B88238012212846FFF7A9
:10327000ABFE9FE71E3B112BD4D801A252F823F0DE
:1032800017330000253200002532000025320000EF
:10329000253200002B330000253200004D330000A2
:1032A00025320000253200006D3300002532000079
:1032B000EB320000253200002532000025320000EC
:1032C00025320000A33300001A2BABD1FFF7BCFC62
:1032D00000283FF46FAF0323BB60042107F108000F
:1032E000C5E7A82B42D0AA2B9CD1FFF7EBFE002804
:1032F0003FF460AF94F90C30002B4FDB02232B70AE
:1033000058E742B194F90C30002B514BB4BF187BF5
:1033100018790AF0C5F900233BE0FFF795FC002877
:103320003FF448AF4B482421A1E7FFF78DFC00286C
:103330003FF440AF4FF00063BB60474B1B681BBAC4
:10334000FB604FF002133B610C21C7E7FFF77CFCE9
:1033500000283FF42FAF404B1B68013B1BBABB60FA
:1033600008214FF40033FB60781880E7FFF7AAFECE
:1033700000283FF41FAF94F90C30002B04DA02232D
:103380002B70FFF745FE15E7314B18790AF088F9E5
:10339000022388F80C30FFF713FC0BE72C4B187B4B
:1033A000F4E7237C9807B6D5FFF78CFE00283FF49E
:1033B00001AF94F90C30002BF0DB02232B70274B6C
:1033C00001221A70F6E61E4BDB7B2F2B6BD003F02D
:1033D0007F032A2B40F0CA80214B7C681A681E4B61
:1033E0001B689A42BFF41EAFDFF878901E48B9F808
:1033F00000801FFA84FA4044524607F12001D0446D
:103400000CF02FFDB8F5007F544635DB17480AF065
:103410005EF9410730D4094B03221A60144BC3F8FC
:1034200000A0144807F036FEC4E600BFC2360020F4
:10343000963600201E0F0100480201006C12002089
:10344000A336002055534243320F01009002010081
:1034500008000020860F0100141000209436002080
:103460001010002068360020181000205A0D0100AE
:10347000581200205C120020B9F800303D499A44EF
:103480003D4BA9F800A01A68121B1A608B681B1B21
:103490008B602B7812B1022B3FF48CAE5A1E534234
:1034A00053410B7377E7354C354B22681B68D7F8CF
:1034B00004909A42BFF4B6AEDFF8C880B8F8003086
:1034C000ABB93149314801230AF00FF978B1EA4626
:1034D00088B023686A462E492E48C2E905130323A3
:1034E00042F8103F4FF4C2510AF0E0F8D546B8F860
:1034F0000030254807F12002184400211FFA89F9FD
:10350000894508D910F801EB12F801CBE64529D01E
:10351000214A002010700B449BB2B3F5007F22BFFC
:10352000A3F50073A8F800302368134A32BFA8F847
:103530000030013323601368A3EB090313600D4AC5
:103540009168A1EB090191601BB12B78022B3FF42C
:1035500031AE114B1B783BB12B78023B18BF0123D6
:10356000137318E70131CBE70123F9E70B4BC7E9E8
:10357000062318E6963600200C10002010100020BC
:103580001410002068360020181000205A0D010089
:10359000490F01004802010094360020610F01002C
:1035A0002DE9F0410646FCF727FF05464FF0FF33B3
:1035B00012484FF0FF3207F083FC114B1C68D3F820
:1035C00004809C4208BF00242CB90C4807F0F2FC90
:1035D0002046BDE8F081A7683846FCF70DFFA842F9
:1035E00006D12A46394630460CF0F1FB0028ECD0D3
:1035F000444501D02468E7E70024E6E7980200206C
:103600001800002010B5044686B015484FF0FF3270
:103610004FF0FF3307F054FC0CB1A06890B9114B88
:103620000593022304931048002304AA4FF4825107
:103630006FF01504FDF740FF094807F0BBFC20467A
:1036400006B010BDFFF7ACFF08B1084BE8E7084B28
:103650005A68C4E9003214605C600446ECE700BFBD
:1036600098020020B20F0100C8010100CB0F010039
:1036700018000020014808F08BBC00BF9003010037
:1036800038B5044618B90F4B0F485B689847616816
:10369000B1F5683F10D0B1F5680F0DD00B4DA942C0
:1036A0000AD011F46861206807D0014608480CF080
:1036B00032F800232360656038BD14220CF0F9FB5A
:1036C000F9E700BF88010020EF0F01002C5F5CA923
:1036D0007017002008B520B34368B3F5683F10D1D8
:1036E00001220368BFF35B8F53E8001F002903D159
:1036F00043E800200028F7D1BFF35B8F0DD10020F5
:1037000008BD094A93420AD000684FF0FF324FF0DB
:10371000FF3307F0D5FB0028F1D00448F0E7044858
:10372000EEE76FF4E040EBE72C5F5CA9E98FFFFF69
:10373000EA8FFFFF08B5D8B14368B3F5683F10D1F1
:1037400000220368BFF35B8F53E8001F012903D1F8
:1037500043E800200028F7D1BFF35B8F0BD1002096
:1037600008BD074A934208D0006807F023FCF6E73B
:103770006FF4E040F4E70348F2E70348F0E700BFE6
:103780002C5F5CA9E98FFFFFEA8FFFFF10B50446AD
:1037900018B91D4B1D485B6898476368B3F5683FCF
:1037A0002FD0B3F5680F2CD0194A934219D1236852
:1037B00003BB18484FF0FF324FF0FF33214607F0AC
:1037C00089FA08B923681BB90F4B13485B689847FF
:1037D0002068142200210CF06CFB4FF468636360D6
:1037E00008E0B3F5683F0DD83A2B03D040F6BA6233
:1037F0009342DED120680BF0D5FF636843F03A03B3
:10380000636010BD054AF3E788010020EF0F010057
:103810002C5F5CA970170020151001003A00003AD7
:1038200008B506490648402314220BF066FFBDE8A0
:1038300008400449044808F01DBC00BF7012002075
:103840007017002098030100AC0301000149102209
:103850000A60704710ED00E072B6404080F31188B6
:10386000BFF36F8FBFF34F8F30BF62B6BFF36F8F61
:10387000704700BF72B6494081F31188BFF34F8F84
:1038800020BF80F3118862B6704700BF2DE9F04772
:10389000814600AF0C4600294CD06E468AB0D1E973
:1038A0000012A3686D462748A8464FF0050AC5E9EF
:1038B0000501C5E9072348F810AF23484246002315
:1038C0004FF42151FDF7F8FDB546D4E903126369C1
:1038D000AD461E48C5F810A0C5E90501C5E9072396
:1038E0001948002342464FF42151FDF7E5FDB54646
:1038F00088B0E3696D46164AA8464FF0030AC5E949
:10390000052348F810AF1048002342464FF4C25137
:10391000FDF7D2FDB546A369AD460E4AC5F810A025
:10392000C5E905230848002342464FF4C251FDF77C
:10393000C3FDB5462146484607F03AF8BD46BDE806
:10394000F08700BF42100100180201007110010051
:10395000A0100100AF10010040B2002807DB044AAC
:103960004109012300F01F00834042F821307047D5
:1039700000E100E040B200280CDB4309064900F0FA
:103980001F0020330122824041F82320BFF34F8FD4
:10399000BFF36F8F704700BF00E100E0054B4209A5
:1039A00000F01F0053F82220012303FA00F010401A
:1039B000704700BF00E100E040B20028A8BF00F15E
:1039C000604001F10101B8BF064B4FEA4111ACBFA5
:1039D00000F5614000F00F00C9B2B4BF195480F87F
:1039E0000013704714ED00E030BFFFF7FDBF00BFCC
:1039F0000B4A08B50B4B22F07F029A60BFF34F8F42
:103A0000BFF36F8FD3F8882022F47002C3F88820A8
:103A100007F08CF808F040F800F00CFC07F0D8F83C
:103A20000000000000ED00E0094A0A4993680968B7
:103A30009967094958674B6843F080534B600023EE
:103A400083F31188BFF36F8F9368986F704700BF3F
:103A5000583400206806010000ED00E015498A682E
:103A60004FF030001044EFF3098C80E8F01F202065
:103A700080F31288BFF36F8F0F4F4FF000664A69D3
:103A80008A603E604FF07004141920680B4C20606F
:103A9000506F0023536780F3118804B5104600F07F
:103AA00077FCBDE8044002F1300090E8F01F8CF391
:103AB000098870475834002004ED00E08C1700207E
:103AC0001EF0040F0CBFEFF30880EFF3098081694B
:103AD00011F8021C0229FFD001B509F04AFE01BD10
:103AE00042F8203C009B42F81C3C0A49019B42F8EA
:103AF000183C029B42F8143C21F001014FF0807306
:103B000042F8043C42F8081C0023203A026543674F
:103B1000704700BF010D0000094A0346906870B16C
:103B200013F1160F006E05D0A0F140029A4205D89D
:103B3000834203D2814228BF002070470020704793
:103B40005834002008B514460A4A0B4B9060026FA7
:103B50001A600D4600F01CFC204685F30988002100
:103B600063B681F31188BFF36F8F00220023FDF746
:103B7000C7F800BF583400208C17002001B5EFF3C0
:103B80000580A0F110004FEAC0000449014409C9B2
:103B90009847BDE8014002490847000018000100AD
:103BA000013C0000114B124A2DE9F041D518DFF815
:103BB0004480013DB5FBF3F55D430F4B08EB030477
:103BC000013CB4FBF3F403FB04540E1B07460B4902
:103BD00030460CF046F9701942460021083E0CF0C0
:103BE00068F93E6704F10800BDE8F08101000000BB
:103BF000000000000400000004000000800201003A
:103C0000044B99685869884203D003494FF08052A9
:103C10000A6070475834002004ED00E02DE9F041BF
:103C200086B0064600AF0D46474B7B6102244FF439
:103C3000825146483C6107F1100209F0A9FD444B4E
:103C40009B6AD9046DD5434B4048C7E9044307F14B
:103C500010024FF4825109F09BFD17203C4B9B6AE8
:103C60001A050BD53C4B7B61022338483B6107F1B9
:103C700010024FF4825109F08BFD1820344CA36AD6
:103C80009B0523D5E846354B7B6102232F483B61DA
:103C900007F110024FF4825109F07AFDA36BA26A7A
:103CA000100412D588B06A462D492848C2E9051388
:103CB000032342F8103F4FF4C25109F069FDC54695
:103CC0001EB1A36A23F40043A3621920204B9B6A10
:103CD00059050BD5234B7B6102231C483B6107F13F
:103CE00010024FF4825109F053FD1A20184B9A6AC2
:103CF000D20518D51C4B7B61022314483B6107F1A8
:103D000010024FF4825109F043FD1B20104A936AC0
:103D100043F47F439362183700232B70BD46BDE800
:103D2000F08116209AE79B6A9B04EFD50F4B7B61CD
:103D3000022306483B6107F110024FF4825109F05B
:103D400027FD1C20E2E700BFDD1001001802010082
:103D500000ED00E0F3100100041101001711010053
:103D600030110100451101006011010078110100BE
:103D700010B586B0364B3748059304AA02244FF499
:103D80008251049409F004FD334B9B6A9A015DD57E
:103D9000324B304804AA4FF48251CDE9044309F074
:103DA000F7FC1E202C4B9B6ADB010AD52C4B2948C3
:103DB000059304AA02234FF48251049309F0E8FC0E
:103DC0001F20254B9B6A1C030AD5264B21480593CF
:103DD00004AA02234FF48251049309F0D9FC212054
:103DE0001D4B9B6A59030AD51F4B1A48059304AA19
:103DF00002234FF48251049309F0CAFC2220164B8F
:103E00009B6A9A030AD5194B1248059304AA022308
:103E10004FF48251049309F0BBFC23200E4B9B6AA4
:103E2000DB030AD5124B0B48059304AA02234FF477
:103E30008251049309F0ACFC2420074A936A6FEA8C
:103E400003436FEA1343936206B010BD1D20A9E738
:103E5000A71101001802010000ED00E0BF110100F0
:103E6000D2110100EC1101000A1201002F12010011
:103E7000491201002DE9F04786B0814600AF8A461D
:103E80009046514B7B61022450483C6107F110027F
:103E90004FF4825109F07CFC4D4B9B6ADE0645D500
:103EA0004C4B4A48C7E9044307F110024FF48251D2
:103EB000112409F06DFC464B9B6A1D070BD5464B40
:103EC0007B61022341483B6107F110024FF48251AC
:103ED000122409F05DFC3E4DAB6A980728D56C466C
:103EE0003E4B7B6102233B614FF48251374807F11F
:103EF000100209F04DFC6E6BAB6A190660D588B0F4
:103F00006A46374B3148C2E90536032342F8103F71
:103F10004FF4C25109F03CFCA546BAF1000F03D0A2
:103F2000AB6A23F08003AB62132403E01024C2E7E2
:103F30006FF01506264B9B6ADA070BD5294B7B6180
:103F4000022322483B6107F110024FF482511424EE
:103F500009F01EFC1E4B9B6A9B060BD5224B7B6116
:103F600002231A483B6107F110024FF482511524D5
:103F700009F00EFC164B9A6AD50602D49A6A90078D
:103F80000AD55B68190507D549463046FFF7C4FDD9
:103F900010B180F3098802240D4B9A6A920642BF41
:103FA0005A6A22F400525A629A6A42F0FF029A62F6
:103FB00020460023183788F80030BD46BDE8F0875A
:103FC0006FF01506B0E700BF74120100180201007F
:103FD00000ED00E08A12010004110100BD12010091
:103FE000D5120100EB120100781101002DE9F04318
:103FF0007A4B8BB0D3F8048000AF0446C8F30805B1
:10400000002686F31188BFF36F8F02F07F43B3F170
:104010007F4F0ED102F00C03082B19D1704BFB61BE
:1040200002237048BB6107F118024FF4825109F076
:10403000AFFB002634460023FB71EB1E092B00F278
:10404000AD80DFE803F00AA0A39CABABABABABA6A3
:1040500010074CBF0C460126EDE7E946624BFB61B9
:104060004FF0020807F118025E48C7F818804FF4B5
:10407000825109F08DFB0023584DFB71EB6A9A07C2
:104080000BD55A4BC7E90683564807F118024FF47F
:10409000825109F07DFB002342E0EB6A002B01DA3C
:1040A000534BEFE7EB6A5B00F5D5524B4D48C7E940
:1040B000068307F118024FF4825109F069FB6B691E
:1040C000A26943F480736B61BFF34F8FBFF36F8FAF
:1040D0006B6932F8022C23F480736B61BFF34F8F4E
:1040E000BFF36F8F4DF602739A4209D0AB6ADBB211
:1040F000002B37D0FA1D01212046FFF7BBFE40E020
:1041000088B023686A463C493648C2E90513032350
:1041100042F8103F4FF4C25109F03AFB2368CD46F4
:10412000FA79DAB907F1080504F1200C2068616812
:104130002A4603C2083464451546F7D17A6A002E30
:1041400047D0C2F3080121B96FEA52226FEA422236
:104150007A6207F108011846FFF798FB2C37BD4635
:10416000BDE8F083AB6A13F47F4F04D0F91D012042
:10417000FFF754FD05E0AB6AB3F5803F8BD3FFF743
:10418000F7FD0346CCE7FA1D0021B5E7F91D002035
:10419000EEE71A4BFB610223BB6175E7184A194B26
:1041A00018F4F87FE8468AB018BF13466A461649E5
:1041B0000C48C2E905134FF400731384103D134BF0
:1041C000D5614FF4115142F8103F09F0E1FAC546AC
:1041D00061E722F4FF7222F00102B9E700ED00E08E
:1041E0003813010018020100631301007A13010063
:1041F0009B130100A9130100C8130100E41301007F
:104200001F1301000A13010008140100040000013B
:10421000024A536943F010035361704700ED00E018
:10422000EFF30880EFF3098101B57246FFF7DEFE78
:1042300001BD00BF044800232021C2180133302BE8
:1042400082F80013F9D1704700E100E0002080F30C
:104250001488BFF36F8FFCF793FE00200D490860B0
:10426000BFF34F8F0C4880F3088800F03DF8202002
:1042700080F3118809484FF40461401880F30988DD
:10428000EFF314800221084380F31488BFF36F8F8B
:10429000FFF7AEFB94ED00E080540020C044002006
:1042A000BFF34F8F0549064BCA6802F4E06213431F
:1042B000CB60BFF34F8F00BFFDE700BF00ED00E014
:1042C0000400FA050749D1F890200023C2F3072221
:1042D0001846934200DB7047C1F89830C1F8A0003F
:1042E0000133F6E700ED00E008B572B6002383F372
:1042F0001388FFF7E7FF144B4FF0FF32C3F880201D
:10430000C3F88420C3F88820C3F88C20C3F8902019
:10431000C3F89420C3F89820C3F89C20C3F88021E8
:10432000C3F88421C3F88821C3F88C21C3F89021F5
:10433000C3F89421C3F89821C3F89C2162B6BFF357
:104340004F8FBFF36F8F08BD00E100E0084B9B6803
:1043500083420BD1EFF3058343B1064B5A6842F019
:1043600080525A605A6A22F400425A6207F022BB15
:104370005834002000ED00E0024B034A03480121BD
:1043800000F092B80000042000000020BC030100EF
:10439000026E054B403A1A60044A4021C3E90112FB
:1043A0001846012100F08AB89017002000000B1574
:1043B0002DE9F041DFF8B4E09C4600AF154600233C
:1043C0008B421ADA4468002C4DD0BCF1000F1DD08E
:1043D000661E344215D06C4688B06A462449C2E94C
:1043E0000513032342F8103F224800234FF4C25123
:1043F000FDF762F86FF01505A5462846BD46BDE8F5
:10440000F0811F2CE7D902681642E4D1202C026803
:1044100086685FFA85F814D9B4F1004F13D8013CCF
:10442000B4FA84F4C4F11F046400B8F1070F46EA3B
:1044300004060AD96C4688B06A460F4BC2E90535B6
:10444000CFE70824F1E73E24EFE722F01F022A43DA
:1044500042F0100246F00106CEF89850CEF89C20AB
:104460000135CEF8A06001330C30A9E700ED00E083
:104470001F1401001002010042140100044B052228
:10448000C3F89420BFF34F8FBFF36F8F704700BF07
:1044900000ED00E0BFF35F8F024B0022C3F89420D1
:1044A000704700BF00ED00E010B5034C01232278F7
:1044B000FFF77EFF207010BDC336002008B5094A03
:1044C00000231278FFF774FF10F1160F03D0064B8C
:1044D0000022072800DD08BDC3F89800C3F8A0201B
:1044E0000130F6E7C336002000ED00E0144908680B
:1044F000082810B521D8FFF7CDFF124C49680022DB
:10450000904201F10C0105D10F4B1870FFF7B6FF77
:10451000002010BDC4F8982051F80C3C23F01F0374
:10452000134343F01003C4F89C3051F8043C43F0AB
:104530000103C4F8A0300132E2E74FF0FF30E8E7B2
:10454000C803010000ED00E0C336002008B5024BAF
:104550001B689847002008BD9C170020034B044AA5
:104560001860937843F00203937070479C17002003
:1045700044000020F0B587B007460E4614460021DF
:10458000102268461D460BF094FC02238DF8023081
:104590002A46054B019321466846CDE9047607F08B
:1045A000CBFE07B0F0BD00BF97D7000008B50448A8
:1045B00008F062F9404080F311884FF0020002DFFA
:1045C0006814010008B50649064821F00701C1F149
:1045D000005202F5802208F0B1FB002008BD00BFA8
:1045E000E35C0020005900200E4A0123C2F8403548
:1045F0004FF080424FF08051C2F87835D1F8300149
:10460000082808D1D1F83411052904D80648415C9E
:1046100009B1C2F838364FF080430122C3F8802533
:104620000020704700E001409514010020B1034BC9
:10463000800143F001031847704700BFB00201003A
:10464000084B5968024611B11968884207D0D868EA
:1046500030B1996804488A4218BF00207047184654
:10466000704700BFA0170020A817002008B5044815
:104670000BF098F8034BC3E90033002008BD00BFDE
:10468000B0170020C417002002460B46014806F070
:1046900017BC00BFB0170020014806F08BBC00BF5C
:1046A000B01700202DE9F74F824608460F46904686
:1046B000FBF7A2FE4FF0FF3183464FF0FF30FFF7CC
:1046C000E3FF1B4B1C684FF000099C4208BF00240D
:1046D0005B684E465CB9FFF7DFFF36B3CAF800608F
:1046E000B8F1000F1DD1002003B0BDE8F08FA5691F
:1046F000A94512D8AB4510D3012D03D97A5D2F2AD5
:1047000000D052B9E16801932A4638460BF05FFBAE
:10471000019B002804BFA94626469C42DBD02468A2
:10472000D8E7B369C8F80030DDE76FF00100DBE7D8
:10473000C41700202DE9F04188B0804600AF0D4637
:1047400011B10B782F2B11D0344BFB61022334486D
:10475000BB6107F118024FF482516FF0150409F0A4
:1047600025F820462037BD46BDE8F0814368002B80
:104770004DD10668002E4AD12A492846FBF72AFE69
:10478000044690B94FF0FF304FF0FF31FFF77CFF48
:10479000254AC8F804401368934214BF1E462646B3
:1047A000C8F80060FFF778FFDBE732462946381D7E
:1047B000FFF778FF041E0BDA1C4BFB61022318483D
:1047C000BB6107F118024FF4825108F0EFFFC8E710
:1047D0007B68DA69126AEAB1C8F80430DB692946F5
:1047E0001B6A40469847041EBBDA6D4688B0C8E98C
:1047F00000666A460E4B0A48C2E90534032342F8B4
:10480000103F4FF4C25108F0D1FFAD46A9E76FF059
:104810000F04A6E76FF08504A3E700BFE0140100D2
:10482000E80101004A0A0100C4170020B314010086
:10483000F91401002DE9F047D0F8048000AF0646D6
:104840000D46B8F1000F37D0D8F81C305B6A002B4A
:104850006AD0DFF8DCA0DFF8DC9001F101087368B2
:10486000DB6929465B6A30469847041E14DB6B7887
:1048700073B12B78012B0BD151464046FBF7AAFDB3
:104880000028ECD049464046FBF7A4FD0028E6D0BE
:104890002046BD46BDE8F0876D4688B06A46264B87
:1048A0002648C2E90534032342F8103F4FF4C251B1
:1048B00008F07CFFAD46EBE7036813B94B700024AA
:1048C000E6E7DFF87C904FF0FF304FF0FF31FFF765
:1048D000DBFED9F80040D9F804304C4508BF00246D
:1048E00024B9FFF7D9FE6FF00104D1E73268944292
:1048F00016D12846012300F8013BE1680C22194437
:104900000BF077FA00236B732B61D9F804309C42CB
:1049100018BFD4F80080FFF7BFFEC6F80080CEE7CE
:104920009C42DED02468DBE76FF08504B0E700BF6F
:10493000141501001315010016150100E80101000E
:10494000C4170020B0B5446800AF05461CB9046028
:104950002046BD46B0BDE3699B6AB3B19847041ECB
:104960000FDA6D4688B06A46094B0A48C2E9053439
:10497000032342F8103F4FF4C25108F017FFAD4631
:10498000E6E70023C5E90033E2E76FF08504DFE7DF
:1049900030150100E8010100F0B589B00E4600AF06
:1049A000054630B1FBF728FD012802D92B782F2BC3
:1049B00010D0204BFB6102231F48BB6107F1180296
:1049C0004FF482516FF0150408F0F0FE20462437B2
:1049D000BD46F0BD00222946381DFFF763FE041EC8
:1049E0000BDA164BFB6102231348BB6107F1180277
:1049F0004FF4825108F0DAFEE8E77868C3695B6C2F
:104A0000A3B1324629469847041EDFDA6D4688B0C6
:104A10006A460B4B0848C2E90534032342F8103FAD
:104A20004FF4C25108F0C2FEAD46CFE76FF08504E7
:104A3000CCE700BF4B150100E8010100B3140100F1
:104A4000661501002DE9F04387B0044600AF08B1B8
:104A5000C6686EB95F4B7B6102235F483B6107F11B
:104A600010024FF4825108F0A1FE6FF015050EE020
:104A700005688DB1594B7B61022357483B6107F1B3
:104A800010024FF482516FF00F0508F08FFE284698
:104A90001C37BD46BDE8F0833046FBF7ADFC01286E
:104AA000804602D933782F2B01D04D4BD3E74D4EA2
:104AB0004FF0FF304FF0FF31FFF7E6FD3368D6F8D7
:104AC0000490B34218BF1D46BDB9A5682846FFF73C
:104AD000B7FD20B1D0F80490B9F1000F30D1424BAE
:104AE0007B6102233C483B6107F110024FF4825185
:104AF00008F05CFE6FF0010513E0AB6943451BD184
:104B000022692B699A420FD1344B7B6102233248D0
:104B10003B6107F110024FF482516FF00F0508F06E
:104B200045FEFFF7B9FDB2E7E968E06842460BF0E1
:104B30004EF908B92D4BE8E74D45C6D02D68C3E7BF
:104B4000D9F82C308BB96C4688B06A46284B22487D
:104B5000C2E90535032342F8103F4FF4C25108F073
:104B600025FE6FF08505A546DBE7D9F8303093B90F
:104B70006D4688B0E3686A461E491748C2E90513C6
:104B80004FF4007393831C4B42F8103F4FF4E451F1
:104B900008F00CFEAD46D9F82C3020469847051E8B
:104BA0000FDA6C4688B06A46144B0B48C2E90535EB
:104BB000032342F8103F4FF4C25108F0F7FDA54619
:104BC000AFE77368C4E90689C4E900631C607460D8
:104BD000A7E700BF87150100E8010100A515010046
:104BE000C3150100C4170020F6150100D9150100F6
:104BF000221601004716010003000001681601009B
:104C000038B504460D464FF0FF304FF0FF31FFF747
:104C10003BFD2046FFF714FD08B143687BB90B4B01
:104C20005A6812B1DA686AB9012243F8324003EBDC
:104C3000C20300245D60FFF72FFD204638BD6FF0F2
:104C40007704F8E76FF01B04F5E700BFA01700201A
:104C50001328DABF024B18566FF00400704700BFEC
:104C60007F16010001490020FFF7CABFE8030100D9
:104C700030B5C1680122ADF5057D044611440069D7
:104C800003F096F80D2819D194F820309A0722D411
:104C9000DB071AD4124B0FCB6D4685E80F00E06896
:104CA0004FF4007304AA2946013003F0A9F860B953
:104CB000E16820690122114403F07AF828B994F8D8
:104CC000203043F0080384F820300DF5057DBDE861
:104CD0003040FFF7BDBF6FF01D000DF5057D30BD05
:104CE0008002010038B5044600680AF0E9F821683E
:104CF000054604480AF00FFD2846BDE83840FFF796
:104D0000A7BF00BF3002002038B5044600680AF093
:104D100012F82168054605480AF0FDFC00232360CF
:104D20002846BDE83840FFF793BF00BF4C02002083
:104D300073B5002206460D461048002301A905F070
:104D4000C9FF0446B0B9019B01462C2218460BF05E
:104D5000B0F8691C30600AF082F8054620B101996C
:104D600006480AF0D8FC3460284602B0BDE870401E
:104D7000FFF76EBF6FF00B0002B070BD3002002075
:104D8000F7B5002306460D461248174601A9002232
:104D900005F0A0FF0446C0B9019B01462822184631
:104DA0000BF087F8691C306007F0130209F05EFD14
:104DB000054620B1019907480AF0ADFC3460284649
:104DC00003B0BDE8F040FFF743BF6FF00B0003B046
:104DD000F0BD00BF4C020020F8B5C36BC46A164694
:104DE00001FB03F5651906FB03F32CBF012200222A
:104DF0005B1900AF04D21AB9826B14449C4212D2E0
:104E00006C4688B06A46094B0948D661C2E905314B
:104E1000042342F8103F4FF4015108F03AFE0020FD
:104E2000A546BD46F8BD0120FBE700BF9316010073
:104E3000E0010100B0B500AF104D11480AF0B2FC1E
:104E40002846FEF7DFFB041E16DAAB686D468AB013
:104E50006A460C49D461C2E905134FF40073138408
:104E6000094B42F8103F09484FF4115108F011FE68
:104E7000AD462046BD46B0BD0024FAE754000020F0
:104E800068000020C716010004000001E0010100D5
:104E90002DE9F0478AB000AF0446394690F8280063
:104EA000FCF780FE051E15DAA36A6C4688B06A46D8
:104EB0007749D561C2E90513042342F8103F7548CC
:104EC0004FF4015108F0E5FDA54628462837BD46B8
:104ED000BDE8F08704F114064FF0FF324FF0FF33C6
:104EE000304608F0D9FD386808F0B2FBE16A20616D
:104EF0003A1D09F036F8051E12DA6C4688B06A468B
:104F0000654BC2E90535032342F8103F4FF4C25107
:104F1000604808F0BEFDA546386808F098FB99E0A7
:104F2000BB6823646D4688B0A3686A465B49DFF8B6
:104F3000709158484FF4007AC2E90513A2F81CA0FA
:104F40004FF4E65142F8109F08F0A3FDAD468AB039
:104F5000D4E90F01D4F82CC0A36B6A46DFF844E112
:104F600053620623C2E90701C2E905EC494842F849
:104F7000103F4FF4435108F08CFD636BAD468BB985
:104F800088B0A3686A464849A2F81CA0C2E9051384
:104F9000404842F8109F4FF4E65108F07AFDAD46C4
:104FA000002557E0E36A7A68934212D088B0A3687C
:104FB0006A463E49A2F81CA0C2E90513354842F8EA
:104FC000109F4FF4E25108F064FDAD466FF01505F7
:104FD000A2E7BA6803EB0208E36AA26B13449845A0
:104FE00014D33DD0A3686C4688B06A46304929483E
:104FF000C2E905134FF400739383294B42F8103F25
:105000004FF4E25108F045FDA546DFE720693A1D5F
:10501000414608F0A6FF051E0DDA6C4688B06A46C8
:10502000244BC2F81C80C2E90535042342F8103F26
:105030004FF401516CE7BB68226C93420ED01E4BBB
:105040007B621448022307F120024FF482513B6235
:1050500008F01FFD304608F021FD36E79844BBE715
:10506000236C616B8B429BD96C4688B06A461348AF
:10507000D3610423C2E9050142F8103F05484FF40B
:10508000015108F006FD6FF00B05A54644E700BF8F
:10509000EB160100E00101000717010028170100CD
:1050A000030000013D170100791701008917010075
:1050B00001180100B1170100DA17010025180100DD
:1050C000020600F07F0312D5082B05D1010700F07E
:1050D0000F0306D50E48704710F0780F12D100F07C
:1050E0000F034C2000EB43100A4B18447047082B69
:1050F00005D1020700F00F0306D50748704710F0EE
:10510000780FF6D000207047044800EB431070473A
:1051100018290020CC270020382A00203829002018
:10512000014902480AF0F9BBF427002020090020B9
:10513000014601480AF0ABBB2003002002480022D0
:10514000002305F073BF00BF2003002013B51248F1
:1051500004F0F0FE114B98421AD1114804F03EF8C9
:105160000024104804F080F80F49104800944FF0D4
:10517000FF334FF4806206F0E9F80D490B480AF05E
:10518000F6FA0C480C490AF0ABFB204602B010BD01
:105190006FF00400FAE700BF355400000000AD0BCB
:1051A0004D1A010044040100804000202009002025
:1051B0004F180100F4270020A555000010B50E4936
:1051C000BFF35B8F002351E8002F012A03D141E890
:1051D00000300028F7D1BFF35B8F0CD151F8044C9D
:1051E0001439204607F0FDFE783004D12046BDE892
:1051F000104007F0D1BE10BDEC27002038B50024C8
:1052000064F07F00C0B2FFF75BFF013408F036FDA9
:10521000082CF5D10E4D0024E0B2FFF751FF0369D1
:1052200003B90561013408F029FD082C05F140059A
:10523000F2D1084808F022FD074BD3F87C2212B9BE
:10524000064AC3F87C22064808F018FD002038BD45
:105250005C2E002018290020CC2700205C2A00208A
:10526000382A002010B5054CFFF768FF20B14168CF
:1052700020460AF050FAF7E710BD00BF6802002090
:1052800010B588B018480022002301A905F022FDBE
:1052900030B3164B1648079306AA4FF482510224E6
:1052A000069408F0FEFCFFF7DDFF0F480022002304
:1052B00001A905F00FFD50B10E4B0D4806AA4FF4A1
:1052C0008251CDE9064308F0ECFC00200AE0019889
:1052D000042340600374FFF72BFFFFF721FFF4E77F
:1052E0000198406008B010BD680200205A18010003
:1052F000500201007818010098B5022800AF11D8BB
:10530000104B1C5CFFF7BCFF50B10022027404720A
:10531000FFF70EFF0C4B93F824300BB1FFF700FFA3
:10532000BD4698BD6C4688B06A46084BC2E9053058
:10533000032342F8103F06484FF4C25108F0B1FC75
:10534000A546EDE74A1A0100CC2700209418010079
:10535000500201002DE9F04190F80280064600AFAE
:105360004046FFF7ADFE18F0800FF478054625D0D3
:105370009CB1032C1FD06D4688B06A462A4BC2F8F8
:105380001C80C2E90534042342F8103F27484FF43B
:10539000015108F086FCAD460DE0FFF771FF0346B2
:1053A00048B10122AC770274032202739D60FFF7BB
:1053B000BFFEFFF7B5FEBD46BDE8F08154B1012C3C
:1053C000D9D1FFF75DFF03460028F4D06C77047451
:1053D0000473EBE7FFF754FF0028ECD0B278144BCE
:1053E00012F0800F02F0080111D041B1D3F8A836B5
:1053F000EB6001230374022303738560D7E702F097
:105400000F02142101FB0233D3F80836F0E711B183
:10541000D3F8A837ECE702F00F02142101FB0233A6
:10542000D3F80837E4E700BFAF18010050020100CD
:10543000007002402DE9F04188B0064600AF14220A
:10544000002107F10C000AF034FD3378013B052BF5
:1054500021D8DFE803F09B0313138D1503233B755D
:105460000024FFF70DFF0346A8B1047400F1080201
:10547000D7E9050182E80300184634E00423EEE78B
:1054800096F802804046FFF71BFE837A054633B14B
:10549000013B022B68D92037BD46BDE8F08118F0EA
:1054A000800FF47824D09CB1032CF4D06D4688B0E2
:1054B0006A46374BC2F81C80C2E90534042342F81F
:1054C000103F34484FF4015108F0EBFBAD46E2E7E2
:1054D000FFF7D6FE03460028DDD00122AC77027428
:1054E000032202739D60FFF723FEFFF719FED2E748
:1054F00054B1012CDAD1FFF7C3FE03460028CAD00D
:105500006C7704740473EDE7FFF7BAFE04460028D5
:10551000C1D001230374022303738560B07805F1C1
:105520000C010AF08BF870B16E4688B06A461A4BCF
:10553000C2E90530032342F8103F16484FF4C25128
:1055400008F0AFFBB546154AE968B2F88C328B42D9
:1055500006D95B1AA2F88C3204F040FF2046C2E75D
:105560000023A2F88C32F9E73046FFF7F3FE92E70A
:10557000381D04F011FF7B79052B03D13B7913F023
:10558000600F88D0064B7B6101246AE7022468E73C
:10559000AF18010050020100DB180100CC270020E9
:1055A000382900202DE9F047A54CDFF898A286B0F5
:1055B000814600AFFFF7C2FD804618B91837BD46D7
:1055C000BDE8F08794F8252098F8103042B9002BF8
:1055D00000F0B280D8F804109A480AF09CF8E9E785
:1055E000042B00F29981DFE813F0A70005003F01CA
:1055F00055017C0119F8043C8BB9D8F808306D4688
:1056000088B05B7A6A4690499048C2E90513032343
:1056100042F8103F4FF4C25108F043FBAD4698F8F2
:105620000C30D8F80850032B37D8DFE803F0023EDF
:105630006D726E69864B002232607260D3F88014FE
:105640003170D3F884147170D3F88814D3F88C04B3
:1056500041EA00217180D3F89014D3F8940441EA10
:105660000021B180D3F89814D3F89C3441EA032385
:10567000F3800823EB6030687168764B03C31146F2
:105680002B68687A984796F90030002B09DBF3887D
:105690003BB1A4F88C3204F0A1FED8F804105046B7
:1056A0009BE70023A4F88C32F7E76B7F002BF4D044
:1056B0002B7F002BF1D0002667486E774FF0FF322A
:1056C0004FF0FF332E7708F0EFFA6B693B606B68A1
:1056D000C7E901363946687A04F06EFC5F4B9842A0
:1056E0000ED06D4688B06A465D4BC2E90530032393
:1056F00042F8103F55484FF4C25108F0D2FAAD4677
:10570000554808F0D3FAC8E72B680121687A984712
:10571000C3E7AB7A6BB9EB7F5BB94F484FF0FF3211
:105720004FF0FF3308F0C0FA04F088FE4A4808F052
:10573000BDFA2B680221E9E798F80830042BACD8B1
:10574000DFE803F059032367730004F0BDFB05464F
:105750000028A2D104F0EEFABFF35B8F4149012388
:1057600051E8002F002A03D141E800300028F7D18A
:10577000BFF35B8F91D141F8085C41F8105CE069A0
:105780006361143907F0B0FB87E7002565F07F00FF
:10579000C0B2FFF795FC037A13B1407A05F016F812
:1057A0000135082DF2D194F854311BB194F855010C
:1057B00005F00CF80025E8B2FFF782FC037A13B17C
:1057C000407A05F003F80135082DF4D194F87432CD
:1057D0001BB194F8750204F0F9FF002004F056FBA9
:1057E000012384F825302368002B3FF456AF0021B5
:1057F0000220984751E7002584F8255004F08AFFDD
:10580000FFF7DCFC2368002B3FF447AF2946042058
:10581000EFE7002A3FF441AF04F060FB2368002B60
:105820003FF43BAF00210520E3E72368002B3FF462
:1058300034AF002A3FF431AF00210620D9E700BF82
:10584000CC27002068020020FB1801005002010054
:1058500000700240D0270020042800200000AD0B7B
:1058600021190100EC27002009F110054FF0FF334A
:105870004FF0FF32284608F017FAFFF7BFFC284622
:1058800008F014FA59F8283C002B3FF406AF002129
:105890000120AEE794F8743293B1012584F889525F
:1058A00084F88852FFF7ECFC90B9234B7B6102230C
:1058B00022483B6107F110024FF4825108F0F1F9E0
:1058C00059F8283C002B3FF4E8AE00210A2090E76D
:1058D0001B4A057405738260FFF72AFCFFF720FC62
:1058E000EEE7184B7B6102233B6107F110024FF496
:1058F0008251124808F0D5F909F00AFE04F00AFFB7
:1059000004F00EFAFFF7AEFCFFF778FC09F0F9FDA2
:105910000D4804F00FFBC0E66D4688B06A460B499F
:105920000648C2E90513032342F8103F4FF4C25161
:1059300008F0B7F9AD46B0E6471901005002010082
:10594000382A00205B19010035540000721901004B
:1059500038B5164D95F824402CBB05F1380009F0F8
:1059600021FF204600F0B6FB22460121E8612720F6
:10597000FEF722F809F0C5FDFFF740FC044610B918
:10598000012385F824300A4B1B680BB1FFF7C8FBD5
:105990004FF08043D3F83834DB0702D50020FFF7FF
:1059A000ABFC204638BD0024FBE700BFCC2700201D
:1059B00020030020074B93F824203AB193F82530B8
:1059C000002B14BF00206FF0120070476FF0120020
:1059D000704700BFCC2700207FB5024603781279BC
:1059E00003F00F007AB958B10D4B0E48059304AA85
:1059F00002234FF48251049308F053F94FF0FF3023
:105A000007B05DF804FB082801D9074BEDE7012A30
:105A100006BF83F0080343F3C0000020F0E700BF97
:105A20008A19010050020100A919010030B5164B76
:105A300093F8243087B004461BB305782846FFF757
:105A40003FFBB0B14572237983726388436020784D
:105A5000618810F0080F10D14B1E0B420DD00B4B7C
:105A600005930B48022304AA4FF48251049308F0D3
:105A700018F96FF0150007B030BD09F0DAFD00200D
:105A8000F9E76FF01200F6E7CC270020C8190100F3
:105A90005002010030B5194B93F8242087B0054619
:105AA00042B393F825302BB3FFF70AFB044618B92D
:105AB0006FF0150007B030BD837A012B0FD007D9E6
:105AC000023B012B07D96369A3610020E060F1E785
:105AD00004F0BCFCF7E7284604F030FCF3E7084B81
